{
  "contractName": "AssetFactory",
  "abi": [
    {
      "constant": true,
      "inputs": [
        {
          "name": "",
          "type": "bytes32"
        }
      ],
      "name": "assetsAddresses",
      "outputs": [
        {
          "name": "",
          "type": "address"
        }
      ],
      "payable": false,
      "stateMutability": "view",
      "type": "function"
    },
    {
      "constant": true,
      "inputs": [
        {
          "name": "",
          "type": "address"
        },
        {
          "name": "",
          "type": "uint256"
        }
      ],
      "name": "assetsOwner",
      "outputs": [
        {
          "name": "",
          "type": "bytes32"
        }
      ],
      "payable": false,
      "stateMutability": "view",
      "type": "function"
    },
    {
      "constant": true,
      "inputs": [
        {
          "name": "",
          "type": "bytes32"
        }
      ],
      "name": "assets",
      "outputs": [
        {
          "name": "owner",
          "type": "address"
        },
        {
          "name": "totalSupply",
          "type": "uint256"
        },
        {
          "name": "name",
          "type": "string"
        },
        {
          "name": "description",
          "type": "string"
        },
        {
          "name": "isReissuable",
          "type": "bool"
        },
        {
          "name": "isTransferable",
          "type": "bool"
        },
        {
          "name": "baseUnit",
          "type": "uint8"
        }
      ],
      "payable": false,
      "stateMutability": "view",
      "type": "function"
    },
    {
      "constant": true,
      "inputs": [
        {
          "name": "_owner",
          "type": "address"
        }
      ],
      "name": "getAssetsNumber",
      "outputs": [
        {
          "name": "",
          "type": "uint256"
        }
      ],
      "payable": false,
      "stateMutability": "view",
      "type": "function"
    },
    {
      "constant": true,
      "inputs": [
        {
          "name": "_symbol",
          "type": "bytes32"
        }
      ],
      "name": "isCreated",
      "outputs": [
        {
          "name": "",
          "type": "bool"
        }
      ],
      "payable": false,
      "stateMutability": "view",
      "type": "function"
    },
    {
      "constant": true,
      "inputs": [
        {
          "name": "_symbol",
          "type": "bytes32"
        }
      ],
      "name": "baseUnit",
      "outputs": [
        {
          "name": "",
          "type": "uint8"
        }
      ],
      "payable": false,
      "stateMutability": "view",
      "type": "function"
    },
    {
      "constant": true,
      "inputs": [
        {
          "name": "_symbol",
          "type": "bytes32"
        }
      ],
      "name": "name",
      "outputs": [
        {
          "name": "",
          "type": "string"
        }
      ],
      "payable": false,
      "stateMutability": "view",
      "type": "function"
    },
    {
      "constant": true,
      "inputs": [
        {
          "name": "_symbol",
          "type": "bytes32"
        }
      ],
      "name": "assetData",
      "outputs": [
        {
          "name": "",
          "type": "string"
        },
        {
          "name": "",
          "type": "string"
        },
        {
          "name": "",
          "type": "uint256"
        },
        {
          "name": "",
          "type": "uint256"
        },
        {
          "name": "",
          "type": "bool"
        },
        {
          "name": "",
          "type": "bool"
        }
      ],
      "payable": false,
      "stateMutability": "view",
      "type": "function"
    },
    {
      "constant": true,
      "inputs": [
        {
          "name": "_symbol",
          "type": "bytes32"
        }
      ],
      "name": "description",
      "outputs": [
        {
          "name": "",
          "type": "string"
        }
      ],
      "payable": false,
      "stateMutability": "view",
      "type": "function"
    },
    {
      "constant": true,
      "inputs": [
        {
          "name": "_symbol",
          "type": "bytes32"
        }
      ],
      "name": "isReissuable",
      "outputs": [
        {
          "name": "",
          "type": "bool"
        }
      ],
      "payable": false,
      "stateMutability": "view",
      "type": "function"
    },
    {
      "constant": true,
      "inputs": [
        {
          "name": "_symbol",
          "type": "bytes32"
        }
      ],
      "name": "owner",
      "outputs": [
        {
          "name": "",
          "type": "address"
        }
      ],
      "payable": false,
      "stateMutability": "view",
      "type": "function"
    },
    {
      "constant": true,
      "inputs": [
        {
          "name": "_owner",
          "type": "address"
        },
        {
          "name": "_symbol",
          "type": "bytes32"
        }
      ],
      "name": "isOwner",
      "outputs": [
        {
          "name": "",
          "type": "bool"
        }
      ],
      "payable": false,
      "stateMutability": "view",
      "type": "function"
    },
    {
      "constant": true,
      "inputs": [
        {
          "name": "_symbol",
          "type": "bytes32"
        }
      ],
      "name": "totalSupply",
      "outputs": [
        {
          "name": "",
          "type": "uint256"
        }
      ],
      "payable": false,
      "stateMutability": "view",
      "type": "function"
    },
    {
      "constant": true,
      "inputs": [
        {
          "name": "_holder",
          "type": "address"
        },
        {
          "name": "_symbol",
          "type": "bytes32"
        }
      ],
      "name": "balanceOf",
      "outputs": [
        {
          "name": "",
          "type": "uint256"
        }
      ],
      "payable": false,
      "stateMutability": "view",
      "type": "function"
    },
    {
      "constant": false,
      "inputs": [
        {
          "name": "_symbol",
          "type": "bytes32"
        },
        {
          "name": "_value",
          "type": "uint256"
        },
        {
          "name": "_name",
          "type": "string"
        },
        {
          "name": "_description",
          "type": "string"
        },
        {
          "name": "_baseUnit",
          "type": "uint8"
        },
        {
          "name": "_isTransferable",
          "type": "bool"
        },
        {
          "name": "_isReissuable",
          "type": "bool"
        }
      ],
      "name": "issueAsset",
      "outputs": [
        {
          "name": "",
          "type": "address"
        }
      ],
      "payable": false,
      "stateMutability": "nonpayable",
      "type": "function"
    }
  ],
  "bytecode": "0x608060405234801561001057600080fd5b50613a06806100206000396000f3fe60806040523480156200001157600080fd5b50600436106200010c5760003560e01c80638a8ba5c311620000a5578063bebcc045116200006f578063bebcc04514620008e0578063c4eeeeb9146200098d578063dc86e6f014620009d6578063e96b462a1462000a21576200010c565b80638a8ba5c314620005875780639840f59914620006c75780639fda5b661462000722578063b524abcf146200089b576200010c565b806344cd101211620000e757806344cd1012146200023c57806344d26df414620004105780634d30b6be1462000475578063691f343114620004da576200010c565b806302571be31462000111578063216f507014620001825780632f553d3114620001f3575b600080fd5b62000140600480360360208110156200012957600080fd5b810190808035906020019092919050505062000a8a565b604051808273ffffffffffffffffffffffffffffffffffffffff1673ffffffffffffffffffffffffffffffffffffffff16815260200191505060405180910390f35b620001b1600480360360208110156200019a57600080fd5b810190808035906020019092919050505062000ac9565b604051808273ffffffffffffffffffffffffffffffffffffffff1673ffffffffffffffffffffffffffffffffffffffff16815260200191505060405180910390f35b62000222600480360360208110156200020b57600080fd5b810190808035906020019092919050505062000afc565b604051808215151515815260200191505060405180910390f35b620003ce600480360360e08110156200025457600080fd5b810190808035906020019092919080359060200190929190803590602001906401000000008111156200028657600080fd5b8201836020820111156200029957600080fd5b80359060200191846001830284011164010000000083111715620002bc57600080fd5b91908080601f016020809104026020016040519081016040528093929190818152602001838380828437600081840152601f19601f820116905080830192505050505050509192919290803590602001906401000000008111156200032057600080fd5b8201836020820111156200033357600080fd5b803590602001918460018302840111640100000000831117156200035657600080fd5b91908080601f016020809104026020016040519081016040528093929190818152602001838380828437600081840152601f19601f820116905080830192505050505050509192919290803560ff16906020019092919080351515906020019092919080351515906020019092919050505062000b6a565b604051808273ffffffffffffffffffffffffffffffffffffffff1673ffffffffffffffffffffffffffffffffffffffff16815260200191505060405180910390f35b6200045f600480360360408110156200042857600080fd5b81019080803573ffffffffffffffffffffffffffffffffffffffff16906020019092919080359060200190929190505050620010e2565b6040518082815260200191505060405180910390f35b620004c4600480360360408110156200048d57600080fd5b81019080803573ffffffffffffffffffffffffffffffffffffffff1690602001909291908035906020019092919050505062001111565b6040518082815260200191505060405180910390f35b6200050960048036036020811015620004f257600080fd5b810190808035906020019092919050505062001209565b6040518080602001828103825283818151815260200191508051906020019080838360005b838110156200054b5780820151818401526020810190506200052e565b50505050905090810190601f168015620005795780820380516001836020036101000a031916815260200191505b509250505060405180910390f35b620005b6600480360360208110156200059f57600080fd5b8101908080359060200190929190505050620012c4565b6040518080602001806020018781526020018681526020018515151515815260200184151515158152602001838103835289818151815260200191508051906020019080838360005b838110156200061c578082015181840152602081019050620005ff565b50505050905090810190601f1680156200064a5780820380516001836020036101000a031916815260200191505b50838103825288818151815260200191508051906020019080838360005b838110156200068557808201518184015260208101905062000668565b50505050905090810190601f168015620006b35780820380516001836020036101000a031916815260200191505b509850505050505050505060405180910390f35b6200070c60048036036020811015620006df57600080fd5b81019080803573ffffffffffffffffffffffffffffffffffffffff169060200190929190505050620014d1565b6040518082815260200191505060405180910390f35b62000751600480360360208110156200073a57600080fd5b81019080803590602001909291905050506200151d565b604051808873ffffffffffffffffffffffffffffffffffffffff1673ffffffffffffffffffffffffffffffffffffffff168152602001878152602001806020018060200186151515158152602001851515151581526020018460ff1660ff168152602001838103835288818151815260200191508051906020019080838360005b83811015620007ef578082015181840152602081019050620007d2565b50505050905090810190601f1680156200081d5780820380516001836020036101000a031916815260200191505b50838103825287818151815260200191508051906020019080838360005b83811015620008585780820151818401526020810190506200083b565b50505050905090810190601f168015620008865780820380516001836020036101000a031916815260200191505b50995050505050505050505060405180910390f35b620008ca60048036036020811015620008b357600080fd5b8101908080359060200190929190505050620016de565b6040518082815260200191505060405180910390f35b6200090f60048036036020811015620008f857600080fd5b8101908080359060200190929190505050620016fd565b6040518080602001828103825283818151815260200191508051906020019080838360005b838110156200095157808201518184015260208101905062000934565b50505050905090810190601f1680156200097f5780820380516001836020036101000a031916815260200191505b509250505060405180910390f35b620009bc60048036036020811015620009a557600080fd5b8101908080359060200190929190505050620017b8565b604051808215151515815260200191505060405180910390f35b62000a0560048036036020811015620009ee57600080fd5b8101908080359060200190929190505050620017e4565b604051808260ff1660ff16815260200191505060405180910390f35b62000a706004803603604081101562000a3957600080fd5b81019080803573ffffffffffffffffffffffffffffffffffffffff1690602001909291908035906020019092919050505062001810565b604051808215151515815260200191505060405180910390f35b600080600083815260200190815260200160002060000160009054906101000a900473ffffffffffffffffffffffffffffffffffffffff169050919050565b60026020528060005260406000206000915054906101000a900473ffffffffffffffffffffffffffffffffffffffff1681565b60008073ffffffffffffffffffffffffffffffffffffffff1660008084815260200190815260200160002060000160009054906101000a900473ffffffffffffffffffffffffffffffffffffffff1673ffffffffffffffffffffffffffffffffffffffff1614159050919050565b6000808714801562000b7a575081155b1562000bee576040517f08c379a00000000000000000000000000000000000000000000000000000000081526004018080602001828103825260208152602001807f43616e6e6f7420697373756520302076616c756520666978656420617373657481525060200191505060405180910390fd5b60008460ff1611801562000c06575060128460ff1611155b62000c79576040517f08c379a000000000000000000000000000000000000000000000000000000000815260040180806020018281038252601a8152602001807f496e76616c696420446563696d616c7320706172616d6574657200000000000081525060200191505060405180910390fd5b62000c848862000afc565b1562000cf8576040517f08c379a00000000000000000000000000000000000000000000000000000000081526004018080602001828103825260148152602001807f417373657420616c72656164792069737375656400000000000000000000000081525060200191505060405180910390fd5b6040518060e001604052803373ffffffffffffffffffffffffffffffffffffffff168152602001888152602001878152602001868152602001831515815260200184151581526020018560ff168152506000808a815260200190815260200160002060008201518160000160006101000a81548173ffffffffffffffffffffffffffffffffffffffff021916908373ffffffffffffffffffffffffffffffffffffffff16021790555060208201518160010155604082015181600201908051906020019062000dc992919062001892565b50606082015181600301908051906020019062000de892919062001892565b5060808201518160040160006101000a81548160ff02191690831515021790555060a08201518160040160016101000a81548160ff02191690831515021790555060c08201518160040160026101000a81548160ff021916908360ff160217905550905050600033878a8a88888860405162000e649062001919565b808873ffffffffffffffffffffffffffffffffffffffff1673ffffffffffffffffffffffffffffffffffffffff168152602001806020018781526020018681526020018560ff1660ff1681526020018415151515815260200183151515158152602001828103825288818151815260200191508051906020019080838360005b8381101562000f0157808201518184015260208101905062000ee4565b50505050905090810190601f16801562000f2f5780820380516001836020036101000a031916815260200191505b5098505050505050505050604051809103906000f08015801562000f57573d6000803e3d6000fd5b509050600160003373ffffffffffffffffffffffffffffffffffffffff1673ffffffffffffffffffffffffffffffffffffffff16815260200190815260200160002089908060018154018082558091505090600182039060005260206000200160009091929091909150555080600260008b815260200190815260200160002060006101000a81548173ffffffffffffffffffffffffffffffffffffffff021916908373ffffffffffffffffffffffffffffffffffffffff1602179055508073ffffffffffffffffffffffffffffffffffffffff1663a843c51f336040518263ffffffff1660e01b8152600401808273ffffffffffffffffffffffffffffffffffffffff1673ffffffffffffffffffffffffffffffffffffffff168152602001915050602060405180830381600087803b1580156200109557600080fd5b505af1158015620010aa573d6000803e3d6000fd5b505050506040513d6020811015620010c157600080fd5b81019080805190602001909291905050505080915050979650505050505050565b60016020528160005260406000208181548110620010fc57fe5b90600052602060002001600091509150505481565b60006002600083815260200190815260200160002060009054906101000a900473ffffffffffffffffffffffffffffffffffffffff1673ffffffffffffffffffffffffffffffffffffffff166370a08231846040518263ffffffff1660e01b8152600401808273ffffffffffffffffffffffffffffffffffffffff1673ffffffffffffffffffffffffffffffffffffffff16815260200191505060206040518083038186803b158015620011c457600080fd5b505afa158015620011d9573d6000803e3d6000fd5b505050506040513d6020811015620011f057600080fd5b8101908080519060200190929190505050905092915050565b60606000808381526020019081526020016000206002018054600181600116156101000203166002900480601f016020809104026020016040519081016040528092919081815260200182805460018160011615610100020316600290048015620012b85780601f106200128c57610100808354040283529160200191620012b8565b820191906000526020600020905b8154815290600101906020018083116200129a57829003601f168201915b50505050509050919050565b6060806000806000806000808881526020019081526020016000206002016000808981526020019081526020016000206003016000808a8152602001908152602001600020600101546000808b815260200190815260200160002060040160029054906101000a900460ff166000808c815260200190815260200160002060040160019054906101000a900460ff166000808d815260200190815260200160002060040160009054906101000a900460ff16858054600181600116156101000203166002900480601f0160208091040260200160405190810160405280929190818152602001828054600181600116156101000203166002900480156200140f5780601f10620013e3576101008083540402835291602001916200140f565b820191906000526020600020905b815481529060010190602001808311620013f157829003601f168201915b50505050509550848054600181600116156101000203166002900480601f016020809104026020016040519081016040528092919081815260200182805460018160011615610100020316600290048015620014af5780601f106200148357610100808354040283529160200191620014af565b820191906000526020600020905b8154815290600101906020018083116200149157829003601f168201915b505050505094508260ff16925095509550955095509550955091939550919395565b6000600160008373ffffffffffffffffffffffffffffffffffffffff1673ffffffffffffffffffffffffffffffffffffffff168152602001908152602001600020805490509050919050565b60006020528060005260406000206000915090508060000160009054906101000a900473ffffffffffffffffffffffffffffffffffffffff1690806001015490806002018054600181600116156101000203166002900480601f016020809104026020016040519081016040528092919081815260200182805460018160011615610100020316600290048015620015f95780601f10620015cd57610100808354040283529160200191620015f9565b820191906000526020600020905b815481529060010190602001808311620015db57829003601f168201915b505050505090806003018054600181600116156101000203166002900480601f0160208091040260200160405190810160405280929190818152602001828054600181600116156101000203166002900480156200169b5780601f106200166f576101008083540402835291602001916200169b565b820191906000526020600020905b8154815290600101906020018083116200167d57829003601f168201915b5050505050908060040160009054906101000a900460ff16908060040160019054906101000a900460ff16908060040160029054906101000a900460ff16905087565b6000806000838152602001908152602001600020600101549050919050565b60606000808381526020019081526020016000206003018054600181600116156101000203166002900480601f016020809104026020016040519081016040528092919081815260200182805460018160011615610100020316600290048015620017ac5780601f106200178057610100808354040283529160200191620017ac565b820191906000526020600020905b8154815290600101906020018083116200178e57829003601f168201915b50505050509050919050565b600080600083815260200190815260200160002060040160009054906101000a900460ff169050919050565b600080600083815260200190815260200160002060040160029054906101000a900460ff169050919050565b60006200181d8262000afc565b80156200188a57508273ffffffffffffffffffffffffffffffffffffffff1660008084815260200190815260200160002060000160009054906101000a900473ffffffffffffffffffffffffffffffffffffffff1673ffffffffffffffffffffffffffffffffffffffff16145b905092915050565b828054600181600116156101000203166002900490600052602060002090601f016020900481019282601f10620018d557805160ff191683800117855562001906565b8280016001018555821562001906579182015b8281111562001905578251825591602001919060010190620018e8565b5b50905062001915919062001927565b5090565b61208b806200195083390190565b6200194c91905b80821115620019485760008160009055506001016200192e565b5090565b9056fe60806040523480156200001157600080fd5b506040516200208b3803806200208b833981018060405260e08110156200003757600080fd5b810190808051906020019092919080516401000000008111156200005a57600080fd5b828101905060208101848111156200007157600080fd5b81518560018202830111640100000000821117156200008f57600080fd5b50509291906020018051906020019092919080519060200190929190805190602001909291908051906020019092919080519060200190929190505050336000806101000a81548173ffffffffffffffffffffffffffffffffffffffff021916908373ffffffffffffffffffffffffffffffffffffffff160217905550856005908051906020019062000124929190620003fd565b508460068190555082600760006101000a81548160ff021916908360ff16021790555081600760016101000a81548160ff02191690831515021790555080600760026101000a81548160ff02191690831515021790555060008360ff16600a0a850290506200019a8882620001a860201b60201c565b5050505050505050620004ac565b600073ffffffffffffffffffffffffffffffffffffffff168273ffffffffffffffffffffffffffffffffffffffff1614156200024c576040517f08c379a000000000000000000000000000000000000000000000000000000000815260040180806020018281038252601f8152602001807f45524332303a206d696e7420746f20746865207a65726f20616464726573730081525060200191505060405180910390fd5b62000268816004546200037460201b620018d01790919060201c565b600481905550620002c781600260008573ffffffffffffffffffffffffffffffffffffffff1673ffffffffffffffffffffffffffffffffffffffff168152602001908152602001600020546200037460201b620018d01790919060201c565b600260008473ffffffffffffffffffffffffffffffffffffffff1673ffffffffffffffffffffffffffffffffffffffff168152602001908152602001600020819055508173ffffffffffffffffffffffffffffffffffffffff16600073ffffffffffffffffffffffffffffffffffffffff167fddf252ad1be2c89b69c2b068fc378daa952ba7f163c4a11628f55a4df523b3ef836040518082815260200191505060405180910390a35050565b600080828401905083811015620003f3576040517f08c379a000000000000000000000000000000000000000000000000000000000815260040180806020018281038252601b8152602001807f536166654d6174683a206164646974696f6e206f766572666c6f77000000000081525060200191505060405180910390fd5b8091505092915050565b828054600181600116156101000203166002900490600052602060002090601f016020900481019282601f106200044057805160ff191683800117855562000471565b8280016001018555821562000471579182015b828111156200047057825182559160200191906001019062000453565b5b50905062000480919062000484565b5090565b620004a991905b80821115620004a55760008160009055506001016200048b565b5090565b90565b611bcf80620004bc6000396000f3fe608060405234801561001057600080fd5b50600436106101165760003560e01c8063557f4bc9116100a2578063a457c2d711610071578063a457c2d7146105a4578063a843c51f1461060a578063a9059cbb14610666578063ce606ee0146106cc578063dd62ed3e1461071657610116565b8063557f4bc9146104885780635aa77d3c146104e457806370a082311461052e57806395d89b411461058657610116565b806326261abd116100e957806326261abd146102a8578063313ce5671461038e57806339509351146103b257806340c10f19146104185780634592cd1d1461046657610116565b806306fdde031461011b578063095ea7b31461019e57806318160ddd1461020457806323b872dd14610222575b600080fd5b61012361078e565b6040518080602001828103825283818151815260200191508051906020019080838360005b83811015610163578082015181840152602081019050610148565b50505050905090810190601f1680156101905780820380516001836020036101000a031916815260200191505b509250505060405180910390f35b6101ea600480360360408110156101b457600080fd5b81019080803573ffffffffffffffffffffffffffffffffffffffff16906020019092919080359060200190929190505050610830565b604051808215151515815260200191505060405180910390f35b61020c610847565b6040518082815260200191505060405180910390f35b61028e6004803603606081101561023857600080fd5b81019080803573ffffffffffffffffffffffffffffffffffffffff169060200190929190803573ffffffffffffffffffffffffffffffffffffffff16906020019092919080359060200190929190505050610851565b604051808215151515815260200191505060405180910390f35b61037460048036036101408110156102bf57600080fd5b81019080803573ffffffffffffffffffffffffffffffffffffffff16906020019092919080359060200190929190803573ffffffffffffffffffffffffffffffffffffffff169060200190929190803590602001909291908035906020019092919080359060200190929190803573ffffffffffffffffffffffffffffffffffffffff169060200190929190803560ff1690602001909291908035906020019092919080359060200190929190505050610902565b604051808215151515815260200191505060405180910390f35b610396610cc7565b604051808260ff1660ff16815260200191505060405180910390f35b6103fe600480360360408110156103c857600080fd5b81019080803573ffffffffffffffffffffffffffffffffffffffff16906020019092919080359060200190929190505050610cde565b604051808215151515815260200191505060405180910390f35b6104646004803603604081101561042e57600080fd5b81019080803573ffffffffffffffffffffffffffffffffffffffff16906020019092919080359060200190929190505050610d83565b005b61046e610e69565b604051808215151515815260200191505060405180910390f35b6104ca6004803603602081101561049e57600080fd5b81019080803573ffffffffffffffffffffffffffffffffffffffff169060200190929190505050610f58565b604051808215151515815260200191505060405180910390f35b6104ec610ffa565b604051808273ffffffffffffffffffffffffffffffffffffffff1673ffffffffffffffffffffffffffffffffffffffff16815260200191505060405180910390f35b6105706004803603602081101561054457600080fd5b81019080803573ffffffffffffffffffffffffffffffffffffffff169060200190929190505050611020565b6040518082815260200191505060405180910390f35b61058e611069565b6040518082815260200191505060405180910390f35b6105f0600480360360408110156105ba57600080fd5b81019080803573ffffffffffffffffffffffffffffffffffffffff16906020019092919080359060200190929190505050611073565b604051808215151515815260200191505060405180910390f35b61064c6004803603602081101561062057600080fd5b81019080803573ffffffffffffffffffffffffffffffffffffffff169060200190929190505050611118565b604051808215151515815260200191505060405180910390f35b6106b26004803603604081101561067c57600080fd5b81019080803573ffffffffffffffffffffffffffffffffffffffff169060200190929190803590602001909291905050506111b9565b604051808215151515815260200191505060405180910390f35b6106d4611304565b604051808273ffffffffffffffffffffffffffffffffffffffff1673ffffffffffffffffffffffffffffffffffffffff16815260200191505060405180910390f35b6107786004803603604081101561072c57600080fd5b81019080803573ffffffffffffffffffffffffffffffffffffffff169060200190929190803573ffffffffffffffffffffffffffffffffffffffff169060200190929190505050611329565b6040518082815260200191505060405180910390f35b606060058054600181600116156101000203166002900480601f0160208091040260200160405190810160405280929190818152602001828054600181600116156101000203166002900480156108265780601f106107fb57610100808354040283529160200191610826565b820191906000526020600020905b81548152906001019060200180831161080957829003601f168201915b5050505050905090565b600061083d3384846113b0565b6001905092915050565b6000600454905090565b600061085e8484846115a7565b6108f784336108f285600360008a73ffffffffffffffffffffffffffffffffffffffff1673ffffffffffffffffffffffffffffffffffffffff16815260200190815260200160002060003373ffffffffffffffffffffffffffffffffffffffff1673ffffffffffffffffffffffffffffffffffffffff1681526020019081526020016000205461184790919063ffffffff16565b6113b0565b600190509392505050565b6000806002308d8d8d8d8d8d604051602001808873ffffffffffffffffffffffffffffffffffffffff1673ffffffffffffffffffffffffffffffffffffffff1660601b81526014018773ffffffffffffffffffffffffffffffffffffffff1673ffffffffffffffffffffffffffffffffffffffff1660601b81526014018681526020018573ffffffffffffffffffffffffffffffffffffffff1673ffffffffffffffffffffffffffffffffffffffff1660601b81526014018481526020018381526020018281526020019750505050505050506040516020818303038152906040526040518082805190602001908083835b60208310610a1757805182526020820191506020810190506020830392506109f4565b6001836020036101000a038019825116818451168082178552505050505050905001915050602060405180830381855afa158015610a59573d6000803e3d6000fd5b5050506040513d6020811015610a6e57600080fd5b8101908080519060200190929190505050905060606040518060400160405280601c81526020017f19457468657265756d205369676e6564204d6573736167653a0a3332000000008152509050600081836040516020018083805190602001908083835b60208310610af55780518252602082019150602081019050602083039250610ad2565b6001836020036101000a038019825116818451168082178552505050505050905001828152602001925050506040516020818303038152906040528051906020012090508773ffffffffffffffffffffffffffffffffffffffff1660018289898960405160008152602001604052604051808581526020018460ff1660ff1681526020018381526020018281526020019450505050506020604051602081039080840390855afa158015610bad573d6000803e3d6000fd5b5050506020604051035173ffffffffffffffffffffffffffffffffffffffff1614610c40576040517f08c379a000000000000000000000000000000000000000000000000000000000815260040180806020018281038252600a8152602001807f57726f6e6720557365720000000000000000000000000000000000000000000081525060200191505060405180910390fd5b89431115610cb6576040517f08c379a000000000000000000000000000000000000000000000000000000000815260040180806020018281038252600d8152602001807f4f7264657220457870697265640000000000000000000000000000000000000081525060200191505060405180910390fd5b5050509a9950505050505050505050565b6000600760009054906101000a900460ff16905090565b6000610d793384610d7485600360003373ffffffffffffffffffffffffffffffffffffffff1673ffffffffffffffffffffffffffffffffffffffff16815260200190815260200160002060008973ffffffffffffffffffffffffffffffffffffffff1673ffffffffffffffffffffffffffffffffffffffff168152602001908152602001600020546118d090919063ffffffff16565b6113b0565b6001905092915050565b3373ffffffffffffffffffffffffffffffffffffffff166000809054906101000a900473ffffffffffffffffffffffffffffffffffffffff1673ffffffffffffffffffffffffffffffffffffffff161415610e6557600760029054906101000a900460ff16610e5a576040517f08c379a00000000000000000000000000000000000000000000000000000000081526004018080602001828103825260178152602001807f4173736574206973206e6f742072656973737561626c6500000000000000000081525060200191505060405180910390fd5b610e648282611958565b5b5050565b60003373ffffffffffffffffffffffffffffffffffffffff16600160009054906101000a900473ffffffffffffffffffffffffffffffffffffffff1673ffffffffffffffffffffffffffffffffffffffff1614610ec95760009050610f55565b600160009054906101000a900473ffffffffffffffffffffffffffffffffffffffff166000806101000a81548173ffffffffffffffffffffffffffffffffffffffff021916908373ffffffffffffffffffffffffffffffffffffffff160217905550600160006101000a81549073ffffffffffffffffffffffffffffffffffffffff0219169055600190505b90565b60003373ffffffffffffffffffffffffffffffffffffffff166000809054906101000a900473ffffffffffffffffffffffffffffffffffffffff1673ffffffffffffffffffffffffffffffffffffffff161415610ff55781600160006101000a81548173ffffffffffffffffffffffffffffffffffffffff021916908373ffffffffffffffffffffffffffffffffffffffff160217905550600190505b919050565b600160009054906101000a900473ffffffffffffffffffffffffffffffffffffffff1681565b6000600260008373ffffffffffffffffffffffffffffffffffffffff1673ffffffffffffffffffffffffffffffffffffffff168152602001908152602001600020549050919050565b6000600654905090565b600061110e338461110985600360003373ffffffffffffffffffffffffffffffffffffffff1673ffffffffffffffffffffffffffffffffffffffff16815260200190815260200160002060008973ffffffffffffffffffffffffffffffffffffffff1673ffffffffffffffffffffffffffffffffffffffff1681526020019081526020016000205461184790919063ffffffff16565b6113b0565b6001905092915050565b60003373ffffffffffffffffffffffffffffffffffffffff166000809054906101000a900473ffffffffffffffffffffffffffffffffffffffff1673ffffffffffffffffffffffffffffffffffffffff1614156111b457816000806101000a81548173ffffffffffffffffffffffffffffffffffffffff021916908373ffffffffffffffffffffffffffffffffffffffff160217905550600190505b919050565b6000600760019054906101000a900460ff16156111e0576111db3384846115a7565b6112fa565b6000809054906101000a900473ffffffffffffffffffffffffffffffffffffffff1673ffffffffffffffffffffffffffffffffffffffff168373ffffffffffffffffffffffffffffffffffffffff16148061128757506000809054906101000a900473ffffffffffffffffffffffffffffffffffffffff1673ffffffffffffffffffffffffffffffffffffffff163373ffffffffffffffffffffffffffffffffffffffff16145b6112f9576040517f08c379a000000000000000000000000000000000000000000000000000000000815260040180806020018281038252601b8152602001807f417373657473206973206e6f74207472616e7366657261626c6521000000000081525060200191505060405180910390fd5b5b6001905092915050565b6000809054906101000a900473ffffffffffffffffffffffffffffffffffffffff1681565b6000600360008473ffffffffffffffffffffffffffffffffffffffff1673ffffffffffffffffffffffffffffffffffffffff16815260200190815260200160002060008373ffffffffffffffffffffffffffffffffffffffff1673ffffffffffffffffffffffffffffffffffffffff16815260200190815260200160002054905092915050565b600073ffffffffffffffffffffffffffffffffffffffff168373ffffffffffffffffffffffffffffffffffffffff161415611436576040517f08c379a0000000000000000000000000000000000000000000000000000000008152600401808060200182810382526024815260200180611b806024913960400191505060405180910390fd5b600073ffffffffffffffffffffffffffffffffffffffff168273ffffffffffffffffffffffffffffffffffffffff1614156114bc576040517f08c379a0000000000000000000000000000000000000000000000000000000008152600401808060200182810382526022815260200180611b396022913960400191505060405180910390fd5b80600360008573ffffffffffffffffffffffffffffffffffffffff1673ffffffffffffffffffffffffffffffffffffffff16815260200190815260200160002060008473ffffffffffffffffffffffffffffffffffffffff1673ffffffffffffffffffffffffffffffffffffffff168152602001908152602001600020819055508173ffffffffffffffffffffffffffffffffffffffff168373ffffffffffffffffffffffffffffffffffffffff167f8c5be1e5ebec7d5bd14f71427d1e84f3dd0314c0f7b2291e5b200ac8c7c3b925836040518082815260200191505060405180910390a3505050565b600073ffffffffffffffffffffffffffffffffffffffff168373ffffffffffffffffffffffffffffffffffffffff16141561162d576040517f08c379a0000000000000000000000000000000000000000000000000000000008152600401808060200182810382526025815260200180611b5b6025913960400191505060405180910390fd5b600073ffffffffffffffffffffffffffffffffffffffff168273ffffffffffffffffffffffffffffffffffffffff1614156116b3576040517f08c379a0000000000000000000000000000000000000000000000000000000008152600401808060200182810382526023815260200180611b166023913960400191505060405180910390fd5b61170581600260008673ffffffffffffffffffffffffffffffffffffffff1673ffffffffffffffffffffffffffffffffffffffff1681526020019081526020016000205461184790919063ffffffff16565b600260008573ffffffffffffffffffffffffffffffffffffffff1673ffffffffffffffffffffffffffffffffffffffff1681526020019081526020016000208190555061179a81600260008573ffffffffffffffffffffffffffffffffffffffff1673ffffffffffffffffffffffffffffffffffffffff168152602001908152602001600020546118d090919063ffffffff16565b600260008473ffffffffffffffffffffffffffffffffffffffff1673ffffffffffffffffffffffffffffffffffffffff168152602001908152602001600020819055508173ffffffffffffffffffffffffffffffffffffffff168373ffffffffffffffffffffffffffffffffffffffff167fddf252ad1be2c89b69c2b068fc378daa952ba7f163c4a11628f55a4df523b3ef836040518082815260200191505060405180910390a3505050565b6000828211156118bf576040517f08c379a000000000000000000000000000000000000000000000000000000000815260040180806020018281038252601e8152602001807f536166654d6174683a207375627472616374696f6e206f766572666c6f77000081525060200191505060405180910390fd5b600082840390508091505092915050565b60008082840190508381101561194e576040517f08c379a000000000000000000000000000000000000000000000000000000000815260040180806020018281038252601b8152602001807f536166654d6174683a206164646974696f6e206f766572666c6f77000000000081525060200191505060405180910390fd5b8091505092915050565b600073ffffffffffffffffffffffffffffffffffffffff168273ffffffffffffffffffffffffffffffffffffffff1614156119fb576040517f08c379a000000000000000000000000000000000000000000000000000000000815260040180806020018281038252601f8152602001807f45524332303a206d696e7420746f20746865207a65726f20616464726573730081525060200191505060405180910390fd5b611a10816004546118d090919063ffffffff16565b600481905550611a6881600260008573ffffffffffffffffffffffffffffffffffffffff1673ffffffffffffffffffffffffffffffffffffffff168152602001908152602001600020546118d090919063ffffffff16565b600260008473ffffffffffffffffffffffffffffffffffffffff1673ffffffffffffffffffffffffffffffffffffffff168152602001908152602001600020819055508173ffffffffffffffffffffffffffffffffffffffff16600073ffffffffffffffffffffffffffffffffffffffff167fddf252ad1be2c89b69c2b068fc378daa952ba7f163c4a11628f55a4df523b3ef836040518082815260200191505060405180910390a3505056fe45524332303a207472616e7366657220746f20746865207a65726f206164647265737345524332303a20617070726f766520746f20746865207a65726f206164647265737345524332303a207472616e736665722066726f6d20746865207a65726f206164647265737345524332303a20617070726f76652066726f6d20746865207a65726f2061646472657373a165627a7a7230582066d32eab712f423f34112548be95b0d0448d09a06bd613e87cbf55639880436b0029a165627a7a72305820283ec5f03638765d5a7f54541333da3fec618a0398fd437ed0d0210e807e01f70029",
  "source": "pragma solidity ^0.5.0;\n\nimport './IAsset.sol';\nimport './BaseAsset.sol';\n\ncontract AssetFactory {\n    struct Asset {\n        address owner;                    // Asset's owner address.\n        uint totalSupply;                 // Asset's total supply.\n        string name;                      // Asset's name, for information purposes.\n        string description;               // Asset's description, for information purposes.\n        bool isReissuable;                // Indicates if asset have dynamic or fixed supply.\n        bool isTransferable;              // Wether can be transfered\n        uint8 baseUnit;                   // Proposed number of decimals.\n    }\n\n    // Asset symbol to asset mapping.\n    mapping(bytes32 => Asset) public assets;\n    mapping(address => bytes32[]) public assetsOwner;\n    mapping(bytes32 => IAsset) public assetsAddresses;\n    // mapping(address => uint256) private assetsNumber;\n\n    // function getAssetsNumber(address _owner) public view returns(uint256) {\n    //     return assetsNumber[_owner];\n    // }\n\n    function getAssetsNumber(address _owner) public view returns(uint256) {\n        return assetsOwner[_owner].length;\n    }\n\n     /**\n     * Emits Error if called not by asset owner.\n     */\n    modifier onlyOwner(bytes32 _symbol) {\n        require (isOwner(msg.sender, _symbol), 'Only owner: access denied');\n        _;\n    }\n\n    /**\n     * Check asset existance.\n     *\n     * @param _symbol asset symbol.\n     *\n     * @return asset existance.\n     */\n    function isCreated(bytes32 _symbol) public view returns(bool) {\n        return assets[_symbol].owner != address(0);\n    }\n\n    /**\n     * Returns asset decimals.\n     *\n     * @param _symbol asset symbol.\n     *\n     * @return asset decimals.\n     */\n    function baseUnit(bytes32 _symbol) public view returns(uint8) {\n        return assets[_symbol].baseUnit;\n    }\n\n    /**\n     * Returns asset name.\n     *\n     * @param _symbol asset symbol.\n     *\n     * @return asset name.\n     */\n    function name(bytes32 _symbol) public view returns(string memory) {\n        return assets[_symbol].name;\n    }\n\n    function assetData(bytes32 _symbol) public view returns(string memory, string memory, uint256, uint256, bool, bool) {\n        return (assets[_symbol].name, assets[_symbol].description, assets[_symbol].totalSupply, assets[_symbol].baseUnit, assets[_symbol].isTransferable, assets[_symbol].isReissuable);\n    }\n\n    /**\n     * Returns asset description.\n     *\n     * @param _symbol asset symbol.\n     *\n     * @return asset description.\n     */\n    function description(bytes32 _symbol) public view returns(string memory) {\n        return assets[_symbol].description;\n    }\n\n    /**\n     * Returns asset reissuability.\n     *\n     * @param _symbol asset symbol.\n     *\n     * @return asset reissuability.\n     */\n    function isReissuable(bytes32 _symbol) public view returns(bool) {\n        return assets[_symbol].isReissuable;\n    }\n\n    /**\n     * Returns asset owner address.\n     *\n     * @param _symbol asset symbol.\n     *\n     * @return asset owner address.\n     */\n    function owner(bytes32 _symbol) public view returns(address) {\n        return assets[_symbol].owner;\n    }\n\n    /**\n     * Check if specified address has asset owner rights.\n     *\n     * @param _owner address to check.\n     * @param _symbol asset symbol.\n     *\n     * @return owner rights availability.\n     */\n    function isOwner(address _owner, bytes32 _symbol) public view returns(bool) {\n        return isCreated(_symbol) && (assets[_symbol].owner == _owner);\n    }\n\n    /**\n     * Returns asset total supply.\n     *\n     * @param _symbol asset symbol.\n     *\n     * @return asset total supply.\n     */\n    function totalSupply(bytes32 _symbol) public view returns(uint) {\n        return assets[_symbol].totalSupply;\n    }\n\n    /**\n     * Returns asset balance for a particular holder.\n     *\n     * @param _holder holder address.\n     * @param _symbol asset symbol.\n     *\n     * @return holder balance.\n     */\n    function balanceOf(address _holder, bytes32 _symbol) public view returns(uint) {\n        return assetsAddresses[_symbol].balanceOf(_holder);\n    }\n\n     /**\n     * Issues new asset token on the platform.\n     *\n     * Tokens issued with this call go straight to contract owner.\n     * Each symbol can be issued only once, and only by contract owner.\n     *\n     * @param _symbol asset symbol.\n     * @param _value amount of tokens to issue immediately.\n     * @param _name name of the asset.\n     * @param _description description for the asset.\n     * @param _baseUnit number of decimals.\n     * @param _isTransferable whether it can be transferred to others\n     * @param _isReissuable dynamic or fixed supply.\n     *\n     * @return success.\n     */\n    function issueAsset(bytes32 _symbol, uint _value, string memory _name,\n    string memory _description, uint8 _baseUnit, bool _isTransferable,\n    bool _isReissuable) public returns(address) {\n        // Should have positive value if supply is going to be fixed.\n        if (_value == 0 && !_isReissuable) {\n            revert(\"Cannot issue 0 value fixed asset\");\n        }\n        require(_baseUnit > 0 && _baseUnit <= 18, 'Invalid Decimals parameter');\n        // Should not be issued yet.\n        require(!isCreated(_symbol),\"Asset already issued\");\n\n        //uint holderId = _createHolderId(msg.sender);\n\n        assets[_symbol] = Asset(msg.sender, _value, _name, _description, _isReissuable, _isTransferable, _baseUnit);\n        BaseAsset c = new BaseAsset(msg.sender, _name, _symbol, _value, _baseUnit, _isTransferable, _isReissuable);\n        assetsOwner[msg.sender].push(_symbol);\n        assetsAddresses[_symbol] = c;\n        c.transferContractOwnership(msg.sender);\n        return address(c);\n    }\n}",
  "sourcePath": "/home/dzentota/www/tokenomix/contracts/AssetFactory.sol",
  "compiler": {
    "name": "solc",
    "version": "0.5.8+commit.23d335f2.Emscripten.clang"
  },
  "schemaVersion": "3.0.11",
  "updatedAt": "2019-06-23T07:23:38.845Z",
  "devdoc": {
    "methods": {
      "balanceOf(address,bytes32)": {
        "params": {
          "_holder": "holder address.",
          "_symbol": "asset symbol."
        },
        "return": "holder balance."
      },
      "baseUnit(bytes32)": {
        "params": {
          "_symbol": "asset symbol."
        },
        "return": "asset decimals."
      },
      "description(bytes32)": {
        "params": {
          "_symbol": "asset symbol."
        },
        "return": "asset description."
      },
      "isCreated(bytes32)": {
        "params": {
          "_symbol": "asset symbol."
        },
        "return": "asset existance."
      },
      "isOwner(address,bytes32)": {
        "params": {
          "_owner": "address to check.",
          "_symbol": "asset symbol."
        },
        "return": "owner rights availability."
      },
      "isReissuable(bytes32)": {
        "params": {
          "_symbol": "asset symbol."
        },
        "return": "asset reissuability."
      },
      "issueAsset(bytes32,uint256,string,string,uint8,bool,bool)": {
        "params": {
          "_baseUnit": "number of decimals.",
          "_description": "description for the asset.",
          "_isReissuable": "dynamic or fixed supply.",
          "_isTransferable": "whether it can be transferred to others",
          "_name": "name of the asset.",
          "_symbol": "asset symbol.",
          "_value": "amount of tokens to issue immediately."
        },
        "return": "success."
      },
      "name(bytes32)": {
        "params": {
          "_symbol": "asset symbol."
        },
        "return": "asset name."
      },
      "owner(bytes32)": {
        "params": {
          "_symbol": "asset symbol."
        },
        "return": "asset owner address."
      },
      "totalSupply(bytes32)": {
        "params": {
          "_symbol": "asset symbol."
        },
        "return": "asset total supply."
      }
    }
  },
  "userdoc": {
    "methods": {
      "balanceOf(address,bytes32)": {
        "notice": "Returns asset balance for a particular holder."
      },
      "baseUnit(bytes32)": {
        "notice": "Returns asset decimals."
      },
      "description(bytes32)": {
        "notice": "Returns asset description."
      },
      "isCreated(bytes32)": {
        "notice": "Check asset existance."
      },
      "isOwner(address,bytes32)": {
        "notice": "Check if specified address has asset owner rights."
      },
      "isReissuable(bytes32)": {
        "notice": "Returns asset reissuability."
      },
      "issueAsset(bytes32,uint256,string,string,uint8,bool,bool)": {
        "notice": "Issues new asset token on the platform.     * Tokens issued with this call go straight to contract owner. Each symbol can be issued only once, and only by contract owner."
      },
      "name(bytes32)": {
        "notice": "Returns asset name."
      },
      "owner(bytes32)": {
        "notice": "Returns asset owner address."
      },
      "totalSupply(bytes32)": {
        "notice": "Returns asset total supply."
      }
    }
  }
}