{
  "contractName": "Owned",
  "abi": [
    {
      "constant": true,
      "inputs": [],
      "name": "pendingContractOwner",
      "outputs": [
        {
          "name": "",
          "type": "address"
        }
      ],
      "payable": false,
      "stateMutability": "view",
      "type": "function"
    },
    {
      "constant": true,
      "inputs": [],
      "name": "contractOwner",
      "outputs": [
        {
          "name": "",
          "type": "address"
        }
      ],
      "payable": false,
      "stateMutability": "view",
      "type": "function"
    },
    {
      "inputs": [],
      "payable": false,
      "stateMutability": "nonpayable",
      "type": "constructor"
    },
    {
      "constant": false,
      "inputs": [
        {
          "name": "_to",
          "type": "address"
        }
      ],
      "name": "changeContractOwnership",
      "outputs": [
        {
          "name": "",
          "type": "bool"
        }
      ],
      "payable": false,
      "stateMutability": "nonpayable",
      "type": "function"
    },
    {
      "constant": false,
      "inputs": [
        {
          "name": "_to",
          "type": "address"
        }
      ],
      "name": "transferContractOwnership",
      "outputs": [
        {
          "name": "",
          "type": "bool"
        }
      ],
      "payable": false,
      "stateMutability": "nonpayable",
      "type": "function"
    },
    {
      "constant": false,
      "inputs": [],
      "name": "claimContractOwnership",
      "outputs": [
        {
          "name": "",
          "type": "bool"
        }
      ],
      "payable": false,
      "stateMutability": "nonpayable",
      "type": "function"
    }
  ],
  "bytecode": "0x608060405234801561001057600080fd5b50336000806101000a81548173ffffffffffffffffffffffffffffffffffffffff021916908373ffffffffffffffffffffffffffffffffffffffff160217905550610473806100606000396000f3fe608060405234801561001057600080fd5b50600436106100575760003560e01c80634592cd1d1461005c578063557f4bc91461007e5780635aa77d3c146100da578063a843c51f14610124578063ce606ee014610180575b600080fd5b6100646101ca565b604051808215151515815260200191505060405180910390f35b6100c06004803603602081101561009457600080fd5b81019080803573ffffffffffffffffffffffffffffffffffffffff1690602001909291905050506102b9565b604051808215151515815260200191505060405180910390f35b6100e261035b565b604051808273ffffffffffffffffffffffffffffffffffffffff1673ffffffffffffffffffffffffffffffffffffffff16815260200191505060405180910390f35b6101666004803603602081101561013a57600080fd5b81019080803573ffffffffffffffffffffffffffffffffffffffff169060200190929190505050610381565b604051808215151515815260200191505060405180910390f35b610188610422565b604051808273ffffffffffffffffffffffffffffffffffffffff1673ffffffffffffffffffffffffffffffffffffffff16815260200191505060405180910390f35b60003373ffffffffffffffffffffffffffffffffffffffff16600160009054906101000a900473ffffffffffffffffffffffffffffffffffffffff1673ffffffffffffffffffffffffffffffffffffffff161461022a57600090506102b6565b600160009054906101000a900473ffffffffffffffffffffffffffffffffffffffff166000806101000a81548173ffffffffffffffffffffffffffffffffffffffff021916908373ffffffffffffffffffffffffffffffffffffffff160217905550600160006101000a81549073ffffffffffffffffffffffffffffffffffffffff0219169055600190505b90565b60003373ffffffffffffffffffffffffffffffffffffffff166000809054906101000a900473ffffffffffffffffffffffffffffffffffffffff1673ffffffffffffffffffffffffffffffffffffffff1614156103565781600160006101000a81548173ffffffffffffffffffffffffffffffffffffffff021916908373ffffffffffffffffffffffffffffffffffffffff160217905550600190505b919050565b600160009054906101000a900473ffffffffffffffffffffffffffffffffffffffff1681565b60003373ffffffffffffffffffffffffffffffffffffffff166000809054906101000a900473ffffffffffffffffffffffffffffffffffffffff1673ffffffffffffffffffffffffffffffffffffffff16141561041d57816000806101000a81548173ffffffffffffffffffffffffffffffffffffffff021916908373ffffffffffffffffffffffffffffffffffffffff160217905550600190505b919050565b6000809054906101000a900473ffffffffffffffffffffffffffffffffffffffff168156fea165627a7a7230582077b9753f810ca60555a04236e63ef029e444498e5d49c611a90228c9936f24fe0029",
  "source": "pragma solidity ^0.5.0;\n\n/**\n * @title Owned contract with safe ownership pass.\n *\n * Note: all the non constant functions return false instead of throwing in case if state change\n * didn't happen yet.\n */\ncontract Owned {\n    address public contractOwner;\n    address public pendingContractOwner;\n\n    constructor() public {\n        contractOwner = msg.sender;\n    }\n\n    modifier onlyContractOwner() {\n        if (contractOwner == msg.sender) {\n            _;\n        }\n    }\n\n    /**\n     * Prepares ownership pass.\n     *\n     * Can only be called by current owner.\n     *\n     * @param _to address of the next owner.\n     *\n     * @return success.\n     */\n    function changeContractOwnership(address _to) public onlyContractOwner() returns(bool) {\n        pendingContractOwner = _to;\n        return true;\n    }\n\n    /**\n     * Immediately transfers ownership\n     */\n    function transferContractOwnership(address _to) public onlyContractOwner() returns(bool) {\n        contractOwner = _to;\n        return true;\n    }\n\n    /**\n     * Finalize ownership pass.\n     *\n     * Can only be called by pending owner.\n     *\n     * @return success.\n     */\n    function claimContractOwnership() public returns(bool) {\n        if (pendingContractOwner != msg.sender) {\n            return false;\n        }\n        contractOwner = pendingContractOwner;\n        delete pendingContractOwner;\n        return true;\n    }\n}\n",
  "sourcePath": "/home/dzentota/www/tokenomix/contracts/Owned.sol",
  "compiler": {
    "name": "solc",
    "version": "0.5.8+commit.23d335f2.Emscripten.clang"
  },
  "schemaVersion": "3.0.11",
  "updatedAt": "2019-06-23T07:23:38.130Z",
  "devdoc": {
    "methods": {
      "changeContractOwnership(address)": {
        "params": {
          "_to": "address of the next owner."
        },
        "return": "success."
      },
      "claimContractOwnership()": {
        "return": "success."
      }
    },
    "title": "Owned contract with safe ownership pass. * Note: all the non constant functions return false instead of throwing in case if state change didn't happen yet."
  },
  "userdoc": {
    "methods": {
      "changeContractOwnership(address)": {
        "notice": "Prepares ownership pass.     * Can only be called by current owner."
      },
      "claimContractOwnership()": {
        "notice": "Finalize ownership pass.     * Can only be called by pending owner."
      },
      "transferContractOwnership(address)": {
        "notice": "Immediately transfers ownership"
      }
    }
  }
}